:100000000C945D000C9485000C9485000C94850084
:100010000C9485000C9485000C9485000C9485004C
:100020000C9485000C9485000C9485000C9485003C
:100030000C9485000C9485000C9485000C9485002C
:100040000C9430020C9485000C94A6010C94800151
:100050000C9485000C9485000C9485000C9485000C
:100060000C9485000C94850000000008000201003B
:100070000003040700000000000000000000000072
:10008000250028002B0000000000240027002A0083
:10009000040404040404040402020202020203032E
:1000A0000303030301020408102040800102040836
:1000B0001020010204081020511011241FBECFEFA0
:1000C000D8E0DEBFCDBF12E0A0E0B1E0E4E0F2E2B4
:1000D00002C005900D92AC3FB107D9F726E0ACEF16
:1000E000B2E001C01D92AE33B207E1F710E0CDE5FA
:1000F000D0E004C02197FE010E94E610CC35D10764
:10010000C9F70E94F10D0C9400110C940000CF92DD
:10011000DF92EF92FF920F931F93CF93DF936C01C7
:100120007A018B01C0E0D0E0CE15DF0589F0D8015F
:100130006D918D01D601ED91FC910190F081E02D42
:10014000C6010995892B11F47E0102C02196ECCFDE
:10015000C701DF91CF911F910F91FF90EF90DF903A
:10016000CF900895FC01918D828D981761F0828D5A
:10017000DF01A80FB11D5D968C91928D9F5F9F73DB
:10018000928F90E008958FEF9FEF0895FC01918D7D
:10019000828D981731F0828DE80FF11D858D90E0EA
:1001A00008958FEF9FEF0895FC01918D228D892F87
:1001B00090E0805C9F4F821B91098F73992708956F
:1001C0008FE095E00E94D40021E0892B09F420E023
:1001D000822F0895FC01848DDF01A80FB11DA35A61
:1001E000BF4F2C91848D90E001968F739927848F57
:1001F000A689B7892C93A089B1898C9180648C934E
:10020000938D848D981306C00288F389E02D808138
:100210008F7D80830895EF92FF920F931F93CF936A
:10022000DF93EC0181E0888F9B8D8C8D981305C046
:10023000E889F989808185FD24C0F62E0B8D10E0B8
:100240000F5F1F4F0F731127E02E8C8DE8120CC02B
:100250000FB607FCFACFE889F989808185FFF5CFD1
:10026000CE010E94EA00F1CF8B8DFE01E80FF11D57
:10027000E35AFF4FF0820B8FEA89FB89808180620D
:1002800007C0EE89FF896083E889F98980818064ED
:10029000808381E090E0DF91CF911F910F91FF90DB
:1002A000EF900895CF93DF93EC01888D8823C9F0F8
:1002B000EA89FB89808185FD05C0A889B9898C916F
:1002C00086FD0FC00FB607FCF5CF808185FFF2CF0A
:1002D000A889B9898C9185FFEDCFCE010E94EA00F3
:1002E000E7CFDF91CF91089580E090E0892B29F04E
:1002F0000E94E00081110C94000008950E94FB1000
:100300001F920F920FB60F9211242F933F934F938A
:100310005F936F937F938F939F93AF93BF93EF936D
:10032000FF938FE095E00E94EA00FF91EF91BF916B
:10033000AF919F918F917F916F915F914F913F917D
:100340002F910F900FBE0F901F9018951F920F9234
:100350000FB60F9211242F938F939F93EF93FF93D8
:10036000E0911F05F09120058081E0912505F09135
:10037000260582FD12C09081809128058F5F8F73C2
:1003800020912905821751F0E0912805F0E0E15F06
:10039000FA4F958F8093280501C08081FF91EF91DE
:1003A0009F918F912F910F900FBE0F901F901895D6
:1003B00090E0FC01E859FF4F3491FC01EC55FF4FF0
:1003C0002491FC01E057FF4FE491EE2309F43BC078
:1003D000332339F1333091F038F43130A9F0323031
:1003E00001F584B58F7D12C0373091F03830A1F01F
:1003F0003430B9F4809180008F7D03C080918000FB
:100400008F77809380000DC084B58F7784BD09C03D
:100410008091B0008F7703C08091B0008F7D809372
:10042000B000F0E0EE0FFF1FE458FF4FA591B4912C
:100430008FB7F894EC91611103C020952E2301C071
:100440002E2B2C938FBF08952FB7F894609106033D
:100450007091070380910803909109032FBF0895BD
:100460001F920F920FB60F9211242F933F938F93E9
:100470009F93AF93BF938091060390910703A09140
:100480000803B09109033091050323E0230F2D37B2
:1004900020F40196A11DB11D05C026E8230F029688
:1004A000A11DB11D209305038093060390930703BC
:1004B000A0930803B0930903809101039091020374
:1004C000A0910303B09104030196A11DB11D809377
:1004D000010390930203A0930303B0930403BF911D
:1004E000AF919F918F913F912F910F900FBE0F90E1
:1004F0001F9018958F929F92AF92BF92EF92FF92AA
:100500000F931F93CF934B015C01C42F8091000187
:1005100090910101A0910201B09103018815990504
:10052000AA05BB0501F10E940009811102C080E00B
:1005300020C08DE0E82E83E0F82E00E012E020E0FD
:1005400030E0B501A40180910D0590910E050E9447
:10055000CC06882361F38092000190920101A09261
:100560000201B09203018091FC02C82BC093FC02EF
:1005700081E0CF911F910F91FF90EF90BF90AF90CE
:100580009F908F9008954F925F926F927F928F927B
:100590009F92AF92BF92CF92DF92EF92FF920F9312
:1005A0001F93CF93DF93EC016A017B01280139018E
:1005B000423051056105710510F480E073C08985F2
:1005C0009A85AB85BC850196A11DB11D8417950741
:1005D000A607B70790F38B889C88AD88BE888F8963
:1005E000803129F4BB27AF2D9E2D8D2D09C0DB0155
:1005F000CA0147E0B695A795979587954A95D1F793
:10060000880E991EAA1EBB1E8091000190910101C7
:10061000A0910201B091030188169906AA06BB06B3
:1006200079F48F898031A1F4DD24EE24FF24C60102
:10063000880F991FFC01E35FFC4F5182408219C073
:1006400040E0C501B4010E947A028111EACFB5CF22
:10065000E894C7F8DD24EE24FF24C601880F991F13
:10066000880F991FFC01E35FFC4F40825182628238
:1006700073828091FC0281608093FC028A898230BF
:1006800080F08D819E81AF81B885880E991EAA1E4B
:10069000BB1E8092FD029092FE02A092FF02B092D9
:1006A000000381E0DF91CF911F910F91FF90EF90B8
:1006B000DF90CF90BF90AF909F908F907F906F9082
:1006C0005F904F9008958F929F92AF92BF92CF927A
:1006D000DF92EF92FF920F931F93CF93DF93FC0172
:1006E00081859285A385B4850196A11DB11D8417CE
:1006F0009507A607B70710F480E05CC0838994894A
:10070000A589B689C789C03129F4852E962EA72ED2
:10071000BB2409C04A015B01C7E0B694A794979433
:100720008794CA95D1F7E9016A017B018F01BC0169
:10073000CD01680D791D8A1D9B1D80900001909050
:100740000101A0900201B0900301681579058A05A6
:100750009B0599F4F80187898031A9F4B701A601B6
:10076000552766277727440F551FFA01E35FFC4F93
:1007700080819181A0E0B0E018C040E00E947A0240
:100780008111E8CFB9CFB701A6014F77552766276A
:100790007727440F551F440F551FFA01E35FFC4FA5
:1007A00080819181A281B381BF7088839983AA835C
:1007B000BB8381E0DF91CF911F910F91FF90EF906C
:1007C000DF90CF90BF90AF909F908F9008954F9201
:1007D0005F926F927F92AF92BF92CF92DF92EF9231
:1007E000FF920F931F93CF93DF9300D000D0CDB72C
:1007F000DEB78C0149835A836B837C835901C12CFA
:10080000D12C7601412C82E0582E612C712C49812B
:100810005A816B817C819E012F5F3F4FC8010E94EE
:100820006303882351F1D301C201F801058404C098
:10083000880F991FAA1FBB1F0A94D2F7C80ED91E92
:10084000EA1EFB1E49815A816B817C818789803138
:1008500029F088EF9FEFAFEFBFE004C088EF9FEF74
:10086000A0E0B0E0481759076A077B0780F2F5015E
:10087000C082D182E282F38281E00F900F900F90CC
:100880000F90DF91CF911F910F91FF90EF90DF902C
:10089000CF90BF90AF907F906F905F904F900895F2
:1008A0003F924F925F926F927F928F929F92AF9200
:1008B000BF92CF92DF92EF92FF920F931F93CF934D
:1008C000DF93CDB7DEB72C970FB6F894DEBF0FBE1F
:1008D000CDBF5C01DC015B968D909C905C97169679
:1008E000CD90DD90ED90FC901997C114D104E104F6
:1008F000F10439F0BFEFCB1ADB0AEB0AFB0A312C0B
:1009000007C0F401C080D180E280F38033243394A7
:10091000F40181859285A385B4859C01AD012F5F8B
:100920003F4F4F4F5F4F29873A874B875C872601A0
:1009300037011D821E821F821886F40181859285EF
:10094000A385B4852D813E814F81588528173907AD
:100950004A075B0708F063C089859A85AB85BC852B
:100960008C159D05AE05BF0550F482E0C82ED12C34
:10097000E12CF12C92E0492E512C612C712C9E011E
:100980002F5F3F4FB701A601C4010E946303882374
:1009900009F445C089819A81AB81BC81892B8A2B5E
:1009A0008B2B41F0260137019FEF491A590A690A3A
:1009B000790A05C0C414D504E604F70491F02D812A
:1009C0003E814F8158852F5F3F4F4F4F5F4F2D83A3
:1009D0003E834F8358873FEFC31AD30AE30AF30AD3
:1009E000ACCF0FEF1FEF2FEF3FE0B301A201C40127
:1009F0000E94C302882399F0D50116964D915D910E
:100A00006D917C911997411551056105710549F06A
:100A100093018201C4010E94C302811102C080E0DF
:100A20002AC0D50116964D925D926D927C921997CF
:100A3000332051F0D301C2010196A11DB11DF40173
:100A400080839183A283B383F5018789908DA18DE3
:100A5000B28D892B8A2B8B2B69F4D50157964D9239
:100A60005D926D927C925A9714968C91149780683F
:100A700014968C9381E02C960FB6F894DEBF0FBECF
:100A8000CDBFDF91CF911F910F91FF90EF90DF903D
:100A9000CF90BF90AF909F908F907F906F905F901E
:100AA0004F903F9008958F929F92AF92BF92CF92B6
:100AB000DF92EF92FF920F931F93CF93DF93EC019E
:100AC0008D81811102C080E077C00B891C892D893E
:100AD0003E890417150726073707A8F36A017B012B
:100AE000823029F4CA86DB86EC86FD860DC0C114EF
:100AF000D104E104F10451F41E821F821886198684
:100B00001A861B861C861D8681E056C08A849B84BB
:100B1000AC84BD84EB8DFC8D258530E0275F3F4F95
:100B2000B501A4014150510961097109022E04C0A7
:100B300076956795579547950A94D2F7D701C601E0
:100B40000197A109B10904C0B695A7959795879516
:100B50002A95D2F784179507A607B70720F08928AA
:100B60008A288B2849F44F89588D698D7A8D4E8358
:100B70005F836887798704C0841B950BA60BB70B2E
:100B80004C015D018E010A5F1F4F81149104A10485
:100B9000B10409F4A7CF4E815F81688579859801FA
:100BA0008B8D9C8D0E94630391E0891A9108A108A6
:100BB000B1088111EACF87CFDF91CF911F910F91BB
:100BC000FF90EF90DF90CF90BF90AF909F908F906D
:100BD0000895CF93DF9300D01F92CDB7DEB76AE0C0
:100BE0000E94AD10805D8983905D9A831B82CE0147
:100BF00001960E94E50B0F900F900F90DF91CF911F
:100C000008958FB7F89480910C038FBF089561E029
:100C1000FC0184810E94D80180910B038111109204
:100C20000B0308958EBD00000DB407FEFDCF8EB5F9
:100C300008958FEF0C9412060F931F93CF93DF93B9
:100C4000EB010E9424028B010E9419068F3F49F09C
:100C50000E942402601B710B6C177D07A8F380E0D3
:100C600001C081E0DF91CF911F910F910895CF9343
:100C7000DF93EC018E81882389F08F8198859C0118
:100C80002F5F3F4F38872F838230924018F40E94A5
:100C90001906F3CFCE010E9407061E82DF91CF9185
:100CA00008958CBD9DBD0895CF93DF93EC01809195
:100CB0000B03811109C081E080930B038091AC0587
:100CC0009091AD050E94510660E08C81DF91CF913B
:100CD0000C94D801CF92DF92FF920F931F93CF9382
:100CE000DF9300D000D0CDB7DEB76C01F62E29839C
:100CF0003A834B835C830E943706C6010E945406E8
:100D00006CE271E0C6010E941C068F2D80640E9477
:100D1000120608E110E05C814B813A812981DA01F9
:100D2000C901002E04C0B695A795979587950A949A
:100D3000D2F729833A834B835C830E9412060850C2
:100D4000110929813A814B815C81083F8FEF180797
:100D500031F7FF2029F0E8E0FE1204C087E803C065
:100D600085E901C08FEF0E94120610E00E9419066B
:100D7000F601828787FF04C01F3F11F01F5FF6CF87
:100D80000F900F900F900F90DF91CF911F910F91C7
:100D9000FF90DF90CF900895AF92BF92CF92DF92F5
:100DA000EF92FF920F931F93CF93DF93EC016901B2
:100DB000C801820F931F8130924008F070C08E816D
:100DC000882371F088819981AA81BB8148175907CE
:100DD0006A077B0729F48F819885C816D906B0F574
:100DE000488359836A837B838B85833039F089E01C
:100DF000440F551F661F771F8A95D1F79A01AB01E3
:100E000061E1CE010E946A06882319F083E08D8398
:100E100046C00E9424025B010E9419068A878F3F08
:100E200049F40E9424026A197B096D327140A0F3D3
:100E30008FE003C08E3F31F08DE08D83CE010E94A4
:100E400007062DC018861F8281E08E838F819885CA
:100E50008C159D0540F40E9419068F819885019696
:100E600098878F83F3CF6701E00EF11ECE14DF0465
:100E700031F00E941906F60181936F01F7CF8F813F
:100E80009885080F191F18870F838985882319F003
:100E90000115124048F0CE010E94370605C0CE0170
:100EA0000E94070680E001C081E0DF91CF911F9191
:100EB0000F91FF90EF90DF90CF90BF90AF9008958B
:100EC0004F925F926F927F928F929F92AF92BF925A
:100ED000CF92DF92EF92FF920F931F93CF93DF9306
:100EE0001F92CDB7DEB7DC0115962C91223018F495
:100EF00080E090E008C16C01FC0142855385648567
:100F00007585DB01CA0125E0B695A795979587956C
:100F10002A95D1F7F82FFF705F2ED60114968C9189
:100F200080FFEEC044244394F60183899489A58907
:100F3000B68984179507A607B70709F4412C842DB5
:100F400090E09E012F5F3F4F4901360136E0630E6E
:100F5000711C892B09F484C0F60142855385648590
:100F600075855A01F1E0BF22D60115962C9115978F
:100F70007A018B0189E016950795F794E7948A9595
:100F8000D1F75B968D919C915C97223061F4FC01C6
:100F9000828D938DA48DB58DBC01CD016E0D7F1D0D
:100FA000801F911F49C0DC0114962C912150122FF3
:100FB0001E21A114B104E9F411111BC0452B462BCD
:100FC000472B51F4F6018789908DA18DB28D8683D0
:100FD0009783A087B1870DC0D60116964D915D917C
:100FE0006D917C91199793010E946303882309F402
:100FF00087C0F601238D348D86819781A085B185C8
:101000000297A109B109AC01BD01F901058404C031
:10101000440F551F661F771F0A94D2F78685978560
:10102000A089B189840F951FA61FB71FBC01CD01F0
:10103000610F711D811D911DD60114962C9126FF03
:101040002AC000910001109101012091020130910C
:101050000301601771078207930709F03FC01BC0A7
:10106000442009F44DC0898190E0019609F440CFF5
:10107000F60182859385A485B5854F96A11DB11D86
:1010800082879387A487B587F0E25F9EC001112411
:10109000835F9C4F38C040E00E947A02882381F130
:1010A000F501E35FFC4FD401CF010196E817F90782
:1010B00019F021912D93FACFEFEF8E1A9E0AF601C7
:1010C00082859385A485B5850196A11DB11D828772
:1010D0009387A487B58780E090E03BCF740101E05F
:1010E00010E09501AB01BC0180910D0590910E05BA
:1010F0000E94CC06882321F0BFEF8B1A9B0ADFCF1A
:101100008FEF9FEFB2CF0F90DF91CF911F910F9193
:10111000FF90EF90DF90CF90BF90AF909F908F9017
:101120007F906F905F904F900895EF92FF920F9392
:101130001F93CF93DF93EC017901411551056105B0
:10114000710511F482E13CC08B85833039F089E070
:10115000440F551F661F771F8A95D1F79A01AB017F
:1011600068E1CE010E946A06882311F084E028C05D
:101170008EEF0E94120687018EEFF81AF801819116
:101180008F010E9412060E151F05C1F78FEF0E94F6
:1011900012068FEF0E9412060E9419068A878F712D
:1011A000853031F081E18D83CE010E94070609C0B0
:1011B00068E572E0CE010E941C06811107C085E13E
:1011C0008D83CE010E94070680E013C020E030E04E
:1011D000A9016DE0CE010E946A06811104C00E943F
:1011E0001906882311F084E1EBCFCE010E94070697
:1011F00081E0DF91CF911F910F91FF90EF900895C3
:101200008091FC028823A9F14091000150910101D5
:1012100060910201709103012DE033E080910D0592
:1012200090910E050E949508811102C080E00895FA
:101230004091FD025091FE026091FF027091000307
:10124000411551056105710591F02DE033E0809164
:101250000D0590910E050E949508882339F3109290
:10126000FD021092FE021092FF02109200031092F3
:10127000FC0281E00895CF93DF93FC01248127FFD6
:101280002EC0EC01668577858089918941E00E94B6
:101290007A02882341F1EA8980E2E89FF001112473
:1012A000DF01A35FBC4F1097F1F08D81823050F4C5
:1012B0004B895C896D897E895C964D935D936D93B6
:1012C0007C935F978F89988DA98DBA8DE35FFC4FD2
:1012D000938F828FB58BA48B8C818F778C83DF91DA
:1012E000CF910C94000980E0DF91CF9108958F9207
:1012F0009F92AF92BF92DF92EF92FF920F931F9354
:10130000CF93DF9300D000D01F92CDB7DEB78C0112
:101310006D83DC0115968C9115978130C9F4149674
:101320008C9181FF15C082FF1DC0F801438954894B
:101330006589768982859385A485B5858417950707
:10134000A607B70779F0C8010E94530581110AC0AA
:1013500081E090E0D80113969C938E93129780E0E1
:1013600090E0E8C0D8011A964D915D916D917C9105
:101370001D975B968D919C915C97FC01D480DA94CB
:101380004A015B0129E0B694A794979487942A9523
:10139000D1F7D8207A01F1E0FF22D11047C0E11443
:1013A000F10409F043C0D80116964D915D916D91FD
:1013B0007C911997411551056105710559F45796AE
:1013C0008D919D910D90BC91A02D0097A105B10527
:1013D00041F521C09E012F5F3F4F0E946303882388
:1013E00009F4BDCF89819A81AB81BC81F801238D3D
:1013F000348DF9012789203129F048EF5FEF6FEF35
:101400007FE004C048EF5FEF60E070E0841795076D
:10141000A607B70730F0C8010E945004811106C02A
:1014200097CFF80186839783A087B187D8015B9611
:10143000ED91FC915C9716968D909D90AD90BC902F
:101440001997B2E08B1A9108A108B108058404C06D
:10145000880C991CAA1CBB1C0A94D2F78685978518
:10146000A089B189880E991EAA1EBB1E8D0C911CE5
:10147000A11CB11CE114F10409F5F8014285538562
:101480006485758583899489A589B6894817590724
:101490006A077B0798F00E940009882309F458CF57
:1014A0008092000190920101A0920201B09203018A
:1014B0008091FC0281608093FC0208C041E0C5017C
:1014C000B4010E947A02882309F442CFF701E35F56
:1014D000FC4F8D818083F80182859385A485B58535
:1014E0000196A11DB11D82879387A487B587438983
:1014F000548965897689481759076A077B0738F444
:10150000838B948BA58BB68B848180688483D80170
:1015100014968C9183FD03C081E090E00BC0F8012C
:101520008581882309F414CFC8010E943B098111E9
:10153000F3CF0ECF0F900F900F900F900F90DF9181
:10154000CF911F910F91FF90EF90DF90BF90AF90E0
:101550009F908F900895E0910F05F09110050190F4
:10156000F081E02D682F8FE095E009948F929F9293
:10157000AF92BF92CF92DF92EF92FF92CF93DF9321
:10158000C82F89EE95E090930E0580930D05CC232E
:1015900069F1C53010F080E00DC140E060E070E01E
:1015A000CB010E947A028823B1F320E1C29FC001DF
:1015B000112483509D4FFC01E254FE4F20812F7770
:1015C00051F73C96408151816281738144365105C7
:1015D0006105710500F33497C080D180E280F3800B
:1015E000C114D104E104F10421F4D5CFC12CD12CD4
:1015F000760140E0C701B6010E947A02882359F2C1
:1016000080911803909119038115924021F6A091C1
:101610001D03AA2309F4BFCF60911B0370911C0323
:101620006115710509F4B7CF20911A03222309F43B
:10163000B2CFA093DD052093CF0580E030E0E1E05C
:10164000F0E0C82FAF01082E02C0440F551F0A94C6
:10165000E2F72417350741F0982F8F5F983089F70C
:1016600089E08093D80597CF8093D80520912303F4
:10167000309124032115310519F040E050E008C0F5
:101680002091310330913203409133035091340360
:101690002093D0053093D1054093D2055093D305C4
:1016A00046015701860E971EA11CB11C8092DE05D3
:1016B0009092DF05A092E005B092E105E0911E0353
:1016C000F0911F03F093E405E093E305B0E00E947E
:1016D000DB10860E971EA81EB91E8092E50590921B
:1016E000E605A092E705B092E80585E0EE0FFF1F42
:1016F0008A95E1F7E150FE4FEF2FFF27E6958E0E1A
:101700009F1EA11CB11C8092D9059092DA05A0926F
:10171000DB05B092DC0520912003309121032115D7
:10172000310521F0A90160E070E008C040912D036F
:1017300050912E0360912F0370913003D701C601A1
:1017400088199909AA09BB09840F951FA61FB71FFD
:1017500004C0B695A79597958795CA95D2F78093BB
:10176000D4059093D505A093D605B093D705853FB2
:101770002FE09207A105B10510F48CE018C0853F59
:101780009F4FA105B10510F480E111C0809139038C
:1017900090913A03A0913B03B0913C038093E505FF
:1017A0009093E605A093E705B093E80580E2809367
:1017B000E20581E0DF91CF91FF90EF90DF90CF9035
:1017C000BF90AF909F908F900895009769F0FC01B3
:1017D00001900020E9F73197AF01481B590BBC017C
:1017E0008FE095E00C94870080E090E00895CF931F
:1017F000DF930E94E50BEC018AE792E00E94E50B83
:101800008C0F9D1FDF91CF9108958F929F92AF9281
:10181000BF920F931F93CF93DF93CDB7DEB7A197FE
:101820000FB6F894DEBF0FBECDBF19A2423008F448
:101830004AE08E010F5D1F4F842E912CA12CB12CFC
:10184000A50194010E94B910E62FB901CA01015007
:101850001109EA3014F4E05D01C0E95CD801EC93B1
:10186000232B242B252B61F7C8010E94E50BA196A1
:101870000FB6F894DEBF0FBECDBFDF91CF911F91A1
:101880000F91BF90AF909F908F900895CF93DF936B
:101890004AE00E94050CEC018AE792E00E94E50B09
:1018A0008C0F9D1FDF91CF9108953F924F925F92D1
:1018B0006F927F928F929F92AF92BF92CF92DF9260
:1018C000EF92FF920F931F93CF93DF93CDB7DEB7C5
:1018D0006D970FB6F894DEBF0FBECDBF7C01FC0143
:1018E0001682178210861186128613861486158634
:1018F000C62ED12C78E1A72E71E0B72E77247394F1
:10190000E2E05E2E560EF4E06F2EC7010E946007E3
:101910008C01892B09F42EC1F8018081882309F4F8
:1019200029C1853E91F38E3281F3838583FDEDCF0E
:10193000912C892D092C000C990B8C159D052CF4EC
:1019400080E20E94AB0A9394F4CF4801412C312CE1
:10195000F4018081803271F0F8E03F1204C08EE221
:101960000E94AB0A4394F40160818FE095E00E94ED
:101970000B0143943394FFEF8F1A9F0A8BE03812C8
:10198000E7CFF80183858871803121F48FE20E94CE
:10199000AB0A4394FDE0F41510F080E2F8CFF801B3
:1019A000808C918CB401672F772766956454784FAB
:1019B00080E090E04AE00E94050C8DE20E94AB0AB4
:1019C000C40145E0969587954A95E1F78F700E948E
:1019D000E9058DE20E94AB0A882D8F710E94E9050E
:1019E00080E20E94AB0AF80186889788892D869547
:1019F000869586950E94E9058AE30E94AB0AC40198
:101A000055E0969587955A95E1F78F730E94E90501
:101A10008AE30E94AB0A882D8F71880F0E94E90526
:101A2000F80183858871803159F48AE792E00E9439
:101A3000E50BF80183858871803109F066CF0CC011
:101A400080E20E94AB0AF801648D758D868D978DBA
:101A50004AE00E94050CE9CFF70102851385248531
:101A6000358585E036952795179507958A95D1F7A1
:101A7000015011091C821B82BA82A9821E82838DA9
:101A8000948D9D8F8C8F480195E0880C991C9A95B8
:101A9000E1F7A40160E070E0C7010E9453058823CC
:101AA00009F45FC0C7010E946007009709F459C09C
:101AB000FC018081882309F454C0853E09F451C09B
:101AC0008E3209F44EC00F700B8B80910001909103
:101AD0000101A0910201B09103018F87988BA98B1E
:101AE000BA8B80E2089FF0011124E35FFC4F448928
:101AF000558960E070E0BA0155274427828D938DA7
:101B0000A0E0B0E0482B592B6A2B7B2B488F598FD4
:101B10006A8F7B8F8385887151F4848D958DA68D16
:101B2000B78D8C8B9D8BAE8BBF8B7E820CC0803132
:101B3000C1F49E012C5E3F4F8C8D9D8D0E94E7036A
:101B4000882379F06E827D821F82188619861A8614
:101B50001B861C861D861E86652DCE0101960E9461
:101B6000550CA401405E5F4F60E070E0C7010E9429
:101B70005305CBCE6D960FB6F894DEBF0FBECDBF2A
:101B8000DF91CF911F910F91FF90EF90DF90CF9059
:101B9000BF90AF909F908F907F906F905F904F908D
:101BA0003F90089590E0FC01EC55FF4F2491FC011B
:101BB000E057FF4F8491882399F090E0880F991F98
:101BC000FC01EA57FF4FA591B491FC01E458FF4F87
:101BD000859194918FB7F894EC91E22BEC938FBFA1
:101BE0000895789484B5826084BD84B5816084BD95
:101BF00085B5826085BD85B5816085BD80916E00AB
:101C0000816080936E0010928100809181008260DB
:101C10008093810080918100816080938100809118
:101C200080008160809380008091B1008460809307
:101C3000B1008091B00081608093B00080917A0003
:101C4000846080937A0080917A00826080937A0029
:101C500080917A00816080937A0080917A00806818
:101C600080937A001092C100E0911F05F091200549
:101C700082E08083E0911B05F0911C051082E091C9
:101C80001D05F0911E058FEC808310922705E091D1
:101C90002305F091240586E08083E0912105F091F1
:101CA0002205808180618083E0912105F0912205E9
:101CB000808188608083E0912105F09122058081F8
:101CC00080688083E0912105F091220580818F7DDD
:101CD00080838CE191E00E94E50B1092F405109254
:101CE000F2051092EF051092EE058AE08093ED0563
:101CF0000E942402EB018091ED050E94D20D61E06B
:101D00008091ED050E94D8011FB7F89480910A03D5
:101D1000811124C0EAE9F0E08491EEEAF0E09491C8
:101D2000E82FF0E0EE0FFF1FEA57FF4FA591B491A7
:101D3000EC91E92321F461E08AE00E94D8018AE075
:101D40000E94D20D8CB580618CBD8CB580648CBD39
:101D50008DE00E94D20D8BE00E94D20D80910A038B
:101D60008F5F80930A031FBF82E58093AC051092BA
:101D7000AD058091AC059091AD050E9451061AE029
:101D80008FEF0E9412061150D9F789EE95E00E945C
:101D9000540620E030E0A90160E089EE95E00E9461
:101DA0006A06182F8093F305813049F00E942402BF
:101DB0006C1B7D0B613D774060F381E054C02AEAE3
:101DC00031E040E050E068E089EE95E00E946A066C
:101DD00082FF03C01093F4050EC014E00E941906A0
:101DE0008093F3051150D1F78A3A11F082E03BC09D
:101DF00082E08093F4058091F405823021F0C12CBB
:101E0000D12C760105C0C12CD12CE12CA0E4FA2EF6
:101E100020E030E0A90167E389EE95E00E946A06C0
:101E2000A701960169E289EE95E00E946A06809317
:101E3000F305882349F00E9424026C1B7D0B613D51
:101E4000774030F388E00FC08091F405823071F55F
:101E500020E030E0A9016AE389EE95E00E946A067D
:101E60008823B1F086E08093EE0589EE95E00E942C
:101E700007068BE691E00E94F70B83E991E00E9450
:101E8000F70B89EA91E00E94F70B83EC91E03FC0E9
:101E90000E941906807C803C19F483E08093F4054D
:101EA0000E9419060E9419060E94190689EE95E003
:101EB0000E94070680E58093AC051092AD0585E38E
:101EC00091E00E94F70B8EE591E00E94E50B809176
:101ED000F405823039F0833041F0813049F487E0F5
:101EE00092E008C08BE092E005C08FE092E002C073
:101EF00084E192E00E94F70B81E00E94B60A811112
:101F000009C00E94B60A811105C08CE192E00E94CE
:101F1000F70BC4C086E692E00E94E50B6091E205F3
:101F200070E080E090E04AE00E94050C8AE792E0D1
:101F30000E94E50B8AE792E00E94E50BA091CF0595
:101F40004091D4055091D5056091D6057091D70583
:101F50009A01AB0169E0220F331F441F551F6A9598
:101F6000D1F7B0E00E94DB106B017C018DE792E0BD
:101F70000E94E50BC701B6010E94460C83E992E07E
:101F80000E94E50BC701B601EAE096958795779523
:101F90006795EA95D1F70E94460C8AEA92E00E9482
:101FA000E50BC701B601F4E196958795779567959E
:101FB000FA95D1F70E94460C81EC92E00E94F70B53
:101FC0008091B305811165C08091E205803109F5EA
:101FD00082E08093B3051092C5051092C605109259
:101FE000C7051092C8058091E3059091E405A0E033
:101FF000B0E025E0880F991FAA1FBB1F2A95D1F7D3
:102000008093C1059093C205A093C305B093C40506
:102010001DC08032F1F583E08093B3054091E50562
:102020005091E6056091E7057091E8054093C5057C
:102030005093C6056093C7057093C80521EC35E041
:102040008BEC95E00E94E703882319F18BEC95E077
:102050009093CA058093C90581E08093B2051092E0
:10206000B4051092B5051092B6051092B7051092FE
:10207000B8051092B9051092BA051092BB051092DE
:10208000BC051092BD051092BE051092BF051092BE
:10209000C00560E08EEA95E00E94550C0E94740134
:1020A000FDCFEFE0F5E01382128288EE93E0A0E02E
:1020B000B0E084839583A683B78388E091E0918321
:1020C000808385EC90E09587848784EC90E0978707
:1020D000868780EC90E0918B808B81EC90E0938BF5
:1020E000828B82EC90E0958B848B86EC90E0978BD2
:1020F000868B118E128E138E148EECEAF5E080E53D
:1021000080831182E5EFF5E0158216821186138631
:1021100042E050E060E070E044875587668777874B
:1021200013A215A614A688E191E093A782A717A68B
:10213000E9EEF5E01582168211861386EBECF5E0E8
:102140004083518362837383178AEEEAF5E013823A
:1021500012829183808315820895991B79E004C0CF
:10216000991F961708F0961B881F7A95C9F78095D6
:102170000895A1E21A2EAA1BBB1BFD010DC0AA1FC8
:10218000BB1FEE1FFF1FA217B307E407F50720F0E0
:10219000A21BB30BE40BF50B661F771F881F991F5B
:1021A0001A9469F760957095809590959B01AC01A4
:1021B000BD01CF0108950E94EC10A59F900DB49F22
:1021C000900DA49F800D911D11240895EE0FFF1F07
:1021D0000590F491E02D0994A29FB001B39FC00136
:1021E000A39F700D811D1124911DB29F700D811D43
:1021F0001124911D089581E090E0F8940C94001151
:04220000F894FFCF80
:10220400FFFFFFFF000000000B018700D400B200B5
:10221400C600520100000000770987000A496E6970
:102224007469616C697A696E6720534420636172D2
:10223400642E2E2E00576972696E672069732063BD
:102244006F727265637420616E64206120636172D1
:10225400642069732070726573656E742E000A437E
:1022640061726420747970653A2000696E697469DA
:10227400616C697A6174696F6E206661696C65640A
:102284002E205468696E677320746F2063686563D9
:102294006B3A002A206973206120636172642069AB
:1022A4006E7365727465643F002A20697320796FC8
:1022B400757220776972696E6720636F72726563E5
:1022C400743F002A2064696420796F752063686113
:1022D4006E676520746865206368697053656C6512
:1022E40063742070696E20746F206D61746368205C
:1022F400796F757220736869656C64206F72206DE4
:102304006F64756C653F005344310053443200538D
:1023140044484300556E6B6E6F776E00436F756C67
:1023240064206E6F742066696E64204641543136B1
:102334002F464154333220706172746974696F6E30
:102344002E0A4D616B65207375726520796F752750
:10235400766520666F726D61747465642074686557
:102364002063617264000A566F6C756D6520747920
:10237400706520697320464154000D0A00566F6C45
:10238400756D652073697A6520286279746573298F
:102394003A2000566F6C756D652073697A65202844
:1023A4004B6279746573293A2000566F6C756D65BC
:1023B4002073697A6520284D6279746573293A20FF
:1023C400000A46696C657320666F756E64206F6ED3
:1023D40020746865206361726420286E616D652CC9
:1023E400206461746520616E642073697A65206974
:0C23F4006E206279746573293A200000A5
:107800000C94343C0C94513C0C94513C0C94513CE1
:107810000C94513C0C94513C0C94513C0C94513CB4
:107820000C94513C0C94513C0C94513C0C94513CA4
:107830000C94513C0C94513C0C94513C0C94513C94
:107840000C94513C0C94513C0C94513C0C94513C84
:107850000C94513C0C94513C0C94513C0C94513C74
:107860000C94513C0C94513C11241FBECFEFD8E036
:10787000DEBFCDBF11E0A0E0B1E0ECE9FFE702C060
:1078800005900D92A230B107D9F712E0A2E0B1E065
:1078900001C01D92AD30B107E1F70E942D3D0C945F
:1078A000CC3F0C94003C982F959595959595959582
:1078B000905D8F708A307CF0282F295A8091C0000B
:1078C00085FFFCCF9093C6008091C00085FFFCCF60
:1078D0002093C6000895282F205DF0CF982F809127
:1078E000C00085FFFCCF9093C6000895EF92FF92F1
:1078F0000F931F93EE24FF2487018091C00087FD22
:1079000017C00894E11CF11C011D111D81E4E8164B
:1079100082E4F8068FE0080780E0180770F3E09132
:107920000401F091050109958091C00087FFE9CF1E
:107930008091C6001F910F91FF90EF9008950E94D3
:10794000763C982F8091C00085FFFCCF9093C600B5
:1079500091362CF490330CF09053892F089597555D
:10796000892F08951F930E949F3C182F0E949F3CCF
:107970001295107F810F1F9108951F93182F882350
:1079800021F00E94763C1150E1F71F9108951F935A
:10799000182F0E94763C803249F0809103018F5F5E
:1079A000809303018530C1F01F9108958091C0003C
:1079B00085FFFCCF84E18093C6008091C00085FFE5
:1079C000FCCF1093C6008091C00085FFFCCF80E102
:1079D0008093C6001F910895E0910401F091050184
:1079E00009951F9108950E94763C803241F0809164
:1079F00003018F5F80930301853081F008958091AA
:107A0000C00085FFFCCF84E18093C6008091C00058
:107A100085FFFCCF80E18093C6000895E0910401CA
:107A2000F09105010995089540E951E08823A1F0FE
:107A30002D9A28EE33E0FA013197F1F721503040CA
:107A4000D1F72D9828EE33E0FA013197F1F7215064
:107A50003040D1F7815061F708953F924F925F9285
:107A60006F927F928F929F92AF92BF92CF92DF924E
:107A7000EF92FF920F931F93CF93DF93000080E16B
:107A80008093C4001092C50088E18093C10086E015
:107A90008093C2005098589A259A81E00E94143D24
:107AA00024E1F22E9EE1E92E85E9D82E0FE0C02ECA
:107AB00010E1B12EAA24A394B1E49B2EA6E58A2E50
:107AC000F2E57F2EE0E26E2E79E4572E63E5462E36
:107AD00050E5352E0E94763C8033B1F18133B9F107
:107AE000803409F46FC0813409F476C0823409F41B
:107AF00085C0853409F488C0803531F1823521F1A3
:107B0000813511F1853509F485C0863509F48DC0BC
:107B1000843609F496C0843709F403C1853709F423
:107B200072C1863709F466C0809103018F5F80932C
:107B30000301853079F6E0910401F0910501099582
:107B40000E94763C803351F60E94F33CC3CF0E94E2
:107B5000763C803249F78091C00085FFFCCFF092DF
:107B6000C6008091C00085FFFCCF9092C600809136
:107B7000C00085FFFCCF8092C6008091C00085FFC9
:107B8000FCCF7092C6008091C00085FFFCCF609250
:107B9000C6008091C00085FFFCCF5092C600809146
:107BA000C00085FFFCCF4092C6008091C00085FFD9
:107BB000FCCF3092C6008091C00085FFFCCFB09210
:107BC000C60088CF0E94763C863808F4BDCF0E945C
:107BD000763C0E94F33C7ECF0E94763C803809F4CC
:107BE0009CC0813809F40BC1823809F43CC1883942
:107BF00009F48FC080E00E94C73C6CCF84E10E94F2
:107C0000BD3C0E94F33C66CF85E00E94BD3C0E94D3
:107C1000F33C60CF0E94763C809306010E94763C44
:107C2000809307010E94F33C55CF0E94763C80333D
:107C300009F41DC183E00E94BD3C80E00E94C73C66
:107C400049CF0E94763C809309020E94763C809343
:107C5000080280910C028E7F80930C020E94763C79
:107C6000853409F415C18091080290910902892B8D
:107C700089F000E010E00E94763CF801E85FFE4FDA
:107C800080830F5F1F4F80910802909109020817AF
:107C9000190788F30E94763C803209F045CF809125
:107CA0000C0280FF01C16091060170910701660F0F
:107CB000771F7093070160930601A0910802B091AD
:107CC00009021097C9F0E8E0F1E09B01AD014E0F09
:107CD0005F1FF999FECF32BD21BD819180BDFA9A17
:107CE000F99A2F5F3F4FE417F50799F76A0F7B1F4B
:107CF00070930701609306018091C00085FFFCCF5F
:107D0000F092C6008091C00085FFFCCFB092C60003
:107D1000E1CE83E00E94C73CDDCE82E00E94C73CFA
:107D2000D9CE0E94763C809309020E94763C8093D3
:107D300008028091060190910701880F991F909386
:107D40000701809306010E94763C853409F4A6C0A1
:107D500080910C028E7F80930C020E94763C8032D0
:107D600009F0B8CE8091C00085FFFCCFF092C6002C
:107D7000609108027091090261157105B9F140E046
:107D800050E080910C02A82FA170B82FB27011C0E2
:107D9000BB2309F45CC0E0910601F0910701319624
:107DA000F0930701E09306014F5F5F4F46175707B7
:107DB000E8F4AA2369F3F999FECF209106013091E6
:107DC000070132BD21BDF89A90B58091C00085FFB2
:107DD000FCCF9093C6002F5F3F4F30930701209355
:107DE00006014F5F5F4F4617570718F38091C00099
:107DF00085FDE5CE8091C00085FFF8CFE0CE81E023
:107E00000E94C73C67CE0E94763C803209F08CCE3F
:107E10008091C00085FFFCCFF092C6008091C00029
:107E200085FFFCCFE092C6008091C00085FFFCCFAB
:107E3000D092C6008091C00085FFFCCFC092C600E2
:107E40008091C00085FFFCCFB092C60043CEE09188
:107E50000601F091070194918091C00085FFFCCF4D
:107E60009093C6009CCF80E10E94C73C33CE0E9415
:107E7000763C0E94763C182F0E94763C112309F430
:107E800083C0113009F484C08FE00E94C73C22CE29
:107E900080910C02816080930C02E5CE80910C02EF
:107EA000816080930C0259CF809107018823880F4D
:107EB000880B8A2180930B02809106019091070123
:107EC000880F991F90930701809306018091080203
:107ED00080FF09C080910802909109020196909359
:107EE000090280930802F894F999FECF1127E091D6
:107EF0000601F0910701C8E0D1E08091080290915D
:107F00000902103091F40091570001700130D9F34B
:107F100003E000935700E89500915700017001308D
:107F2000D9F301E100935700E89509901990009169
:107F3000570001700130D9F301E000935700E89534
:107F40001395103498F011270091570001700130FB
:107F5000D9F305E000935700E895009157000170B0
:107F60000130D9F301E100935700E895329602976A
:107F700009F0C7CF103011F00296E5CF112480919F
:107F8000C00085FFB9CEBCCE8EE10E94C73CA2CD19
:0C7F900085E90E94C73C9ECDF894FFCF0D
:027F9C00800063
:040000030000780081
:00000001FF
