:100000000C9458000C9480000C9480000C94800098
:100010000C9480000C9480000C9480000C94800060
:100020000C9480000C9480000C9480000C94800050
:100030000C9480000C9480000C9480000C94800040
:100040000C94B6020C9480000C9426030C940003CC
:100050000C9480000C9480000C9480000C94800020
:100060000C9458030C948000000000002500280028
:100070002B00040404040404040402020202020229
:10008000030303030303010204081020408001025C
:1000900004081020010204081020000000080002DB
:1000A00001000003040700000000000000008304BA
:1000B00011241FBECFEFD8E0DEBFCDBF22E0A4E306
:1000C000B1E001C01D92AE39B207E1F711E0A0E046
:1000D000B1E0E8E5F1E102C005900D92A433B1076B
:1000E000D9F710E0C8E5D0E004C02197FE010E94D6
:1000F0009806C735D107C9F70E94BC040C94AA081A
:100100000C94000090E0FC01E656FF4F2491FC01A6
:10011000EA57FF4F3491FC01EE58FF4FE491EE2374
:10012000B1F1222339F1233091F038F42130A9F0D4
:10013000223001F584B58F7D12C0273091F0283030
:10014000A1F02430B9F4809180008F7D03C08091AC
:1001500080008F77809380000DC084B58F7784BD39
:1001600009C08091B0008F7703C08091B0008F7D6F
:100170008093B000F0E0EE0FFF1FE859FF4FA5910C
:10018000B4918FB7F894EC913E2B3C938FBF0895B8
:100190002091F0019091EF01213208F046C080914A
:1001A000CC018111FCCF32E03093CC0131E03093AF
:1001B000CB013FEF3093CA011092C9012093C801CF
:1001C000AFECB1E048EA51E0FA013E2F341B3217A0
:1001D00018F43D913193F9CF1092A7012091A70116
:1001E000990F922B9093A7019091A601913041F421
:1001F0001092A6019091A7019093BB0095EC01C0CD
:1002000095EE9093BC009091CC019230E1F39091E7
:10021000CA019F3F79F08091CA01803241F08091FC
:10022000CA01803331F084E005C081E003C082E080
:1002300001C083E01092CE011092F0011092CD0126
:100240000895CF92DF92EF92FF920F931F93CF9377
:10025000DF936C017A018B01C0E0D0E0CE15DF05A1
:1002600089F0D8016D918D01D601ED91FC9101903D
:10027000F081E02DC6010995892B11F47E0102C0A1
:100280002196ECCFC701DF91CF911F910F91FF9085
:10029000EF90DF90CF900895FC01918D828D98179B
:1002A00061F0828DDF01A80FB11D5D968C91928D5A
:1002B0009F5F9F73928F90E008958FEF9FEF089557
:1002C000FC01918D828D981731F0828DE80FF11D20
:1002D000858D90E008958FEF9FEF0895FC01918D3B
:1002E000228D892F90E0805C9F4F821B91098F7334
:1002F0009927089581EF91E00E946E0121E0892BFA
:1003000009F420E0822F0895FC01848DDF01A80FFD
:10031000B11DA35ABF4F2C91848D90E001968F732D
:100320009927848FA689B7892C93A089B1898C914C
:1003300080648C93938D848D981306C00288F38912
:10034000E02D80818F7D80830895EF92FF920F933F
:100350001F93CF93DF93EC0181E0888F9B8D8C8D71
:10036000981305C0E889F989808185FD24C0F62E9F
:100370000B8D10E00F5F1F4F0F731127E02E8C8D38
:10038000E8120CC00FB607FCFACFE889F989808122
:1003900085FFF5CFCE010E948401F1CF8B8DFE0148
:1003A000E80FF11DE35AFF4FF0820B8FEA89FB89BA
:1003B0008081806207C0EE89FF896083E889F989BE
:1003C00080818064808381E090E0DF91CF911F91F4
:1003D0000F91FF90EF900895CF93DF93EC01888DFC
:1003E0008823C9F0EA89FB89808185FD05C0A88939
:1003F000B9898C9186FD0FC00FB607FCF5CF8081BF
:1004000085FFF2CFA889B9898C9185FFEDCFCE0108
:100410000E948401E7CFDF91CF91089580E090E0C2
:10042000892B29F00E947A0181110C940000089513
:1004300085ED8093BC008091BC0084FDFCCF1092C0
:10044000CC0108950895E0917C0180917B01E8172B
:1004500030F4F0E0E358FE4F808190E008958FEF94
:100460009FEF089590917C0180917B01981750F443
:10047000E92FF0E0E358FE4F208130E09F5F90933A
:100480007C0102C02FEF3FEFC901089580917B01ED
:1004900090E020917C01821B91090895CF92DF9218
:1004A000EF92FF920F931F93CF93DF937C018A010A
:1004B0008091CD01882389F0EB016B01C40ED51E1C
:1004C000CC15DD05F1F06991D701ED91FC9101901A
:1004D000F081E02DC7010995F3CF842F413288F4D4
:1004E0009091CC01943069F440935601FB0124E3D0
:1004F00031E0D9019A2F921B981718F491919D938E
:10050000F9CFC801DF91CF911F910F91FF90EF902C
:10051000DF90CF9008952091CD012223C9F0209142
:10052000F001203240F021E030E0FC0133832283EF
:1005300080E090E008958091CE01E82FF0E0E15353
:10054000FE4F60838F5F8093CE018093F00109C0DE
:100550008091CC01843029F481E08093560160932E
:10056000340181E090E008950E9495081F920F9257
:100570000FB60F9211242F933F938F939F93AF93B6
:10058000BF938091A2019091A301A091A401B09189
:10059000A5013091A10123E0230F2D3720F401960E
:1005A000A11DB11D05C026E8230F0296A11DB11D96
:1005B0002093A1018093A2019093A301A093A40191
:1005C000B093A50180919D0190919E01A0919F0102
:1005D000B091A0010196A11DB11D80939D01909342
:1005E0009E01A0939F01B093A001BF91AF919F91F5
:1005F0008F913F912F910F900FBE0F901F901895E4
:100600001F920F920FB60F9211242F933F934F9387
:100610005F936F937F938F939F93AF93BF93EF936A
:10062000FF9381EF91E00E948401FF91EF91BF91D0
:10063000AF919F918F917F916F915F914F913F917A
:100640002F910F900FBE0F901F9018951F920F9231
:100650000FB60F9211242F938F939F93EF93FF93D5
:10066000E0910102F09102028081E0910702F09195
:10067000080282FD12C0908180910A028F5F8F7301
:1006800020910B02821751F0E0910A02F0E0EF5046
:10069000FE4F958F80930A0201C08081FF91EF91F8
:1006A0009F918F912F910F900FBE0F901F901895D3
:1006B0001F920F920FB60F9211242F933F934F93D7
:1006C0005F936F937F938F939F93AF93BF93EF93BA
:1006D000FF938091B900887F803609F49CC068F54B
:1006E000883209F45BC090F4803109F454C038F4C6
:1006F000882309F4F3C0883009F44DC0F3C0883171
:1007000009F44CC0803209F45DC0ECC0803409F4B7
:1007100068C048F4803309F455C0883309F0E2C05A
:100720008093CA01D5C0803509F44FC0883509F4DB
:100730005DC0883409F0D6C0D3C0883909F4C4C07C
:10074000A8F4883709F467C038F4883609F463C020
:10075000803709F460C0C6C0883809F4B5C0803954
:1007600009F45FC0803809F0BDC05BC0803B09F46C
:1007700083C038F4803A09F466C0883A09F47CC032
:10078000B1C0803C09F4A4C0883C09F4A1C0883BF6
:1007900009F487C0A7C08091A70110C09091C9013A
:1007A0008091C801981770F5E091C90181E08E0F22
:1007B0008093C901F0E0E855FE4F80818093BB0033
:1007C00085EC83C08093CA018BC0E091C90181E0B0
:1007D0008E0F8093C9018091BB00F0E0E855FE4F79
:1007E00080839091C9018091C8016BC0E091C901DB
:1007F00081E08E0F8093C9018091BB00F0E0E85545
:10080000FE4F80838091CB0181116AC081E080938B
:10081000A60184EA5EC083E08093CC0110927A0145
:10082000CFCF80917A01803208F04EC0E0917A01FA
:1008300081E08E0F80937A018091BB00F0E0E65A50
:10084000FE4F8083BDCF80917A01803230F4E091F9
:100850007A01F0E0E65AFE4F10820E941802609181
:100860007A0170E0E0915801F09159018AE591E038
:10087000099510927A012CC084E08093CC011092EB
:10088000570110925601E0915401F09155010995DC
:1008900080915601811105C081E08093560110922C
:1008A0003401E091570181E08E0F80935701F0E011
:1008B000EC5CFE4F80818093BB009091570180914A
:1008C0005601981708F47CCF85E88093BC000AC0D5
:1008D00085EC8093BC001092CC0104C01092CA0138
:1008E0000E941802FF91EF91BF91AF919F918F915C
:1008F0007F916F915F914F913F912F910F900FBE1C
:100900000F901F901895E1EFF1E01382128288EEAC
:1009100093E0A0E0B0E084839583A683B7832AE0C8
:1009200031E03183208325EC30E03587248724ECC7
:1009300030E03787268720EC30E0318B208B21ECAC
:1009400030E0338B228B22EC30E0358B248B26EC8D
:1009500030E0378B268B118E128E138E148EEEE8BC
:10096000F2E01382128284839583A683B7838AE19F
:1009700091E0918380830895CF93DF93CDB7DEB765
:1009800061970FB6F894DEBF0FBECDBF789484B5E3
:10099000826084BD84B5816084BD85B5826085BD7B
:1009A00085B5816085BD80916E00816080936E0009
:1009B00010928100809181008260809381008091FB
:1009C00081008160809381008091800081608093AC
:1009D00080008091B10084608093B1008091B0006C
:1009E00081608093B00080917A00846080937A0067
:1009F00080917A00826080937A0080917A00816091
:100A000080937A0080917A00806880937A001092B7
:100A1000C10010927C0110927B011092CE011092C5
:100A2000F0011092CC0181E08093CB011092A601DD
:100A300082E10E94820083E10E9482008091B900DD
:100A40008E7F8093B9008091B9008D7F8093B9002B
:100A500088E48093B80085E48093BC00E0910102B3
:100A6000F091020282E08083E091FD01F091FE01AD
:100A70001082E091FF01F09100028FEC80831092D0
:100A80000902E0910502F091060286E08083E09180
:100A90000302F0910402808180618083E09103026F
:100AA000F0910402808188608083E0910302F091DC
:100AB0000402808180688083E0910302F091040247
:100AC00080818F7D808349E050E066E271E081EFB4
:100AD00091E00E94210142E050E060E371E081EF8B
:100AE00091E00E942101FF24F39438E4E32E552481
:100AF0005A9445EE442E55EC352E6DE7662E61E096
:100B0000762E9E012F5F3F4F5901F092CD01E0926A
:100B1000EF011092CE011092F00161E08EE892E0B8
:100B20000E948B0260EF8EE892E00E948B0262EEE0
:100B30008EE892E00E948B020E94C800F092CD01E4
:100B40001092CE011092F00160E08EE892E00E94D7
:100B50008B020E94C8008091CC018111FCCFF092E1
:100B6000CC01F092CB015092CA011092C901F092CF
:100B7000C801F092A7018091A70180698093A70125
:100B80008091A601813049F41092A6018091A701BD
:100B90008093BB003092BC0002C04092BC008091A8
:100BA000CC018130E1F38091C901823018F4809149
:100BB000C90101C082E0A8EAB1E0EDE7F1E09E2FB3
:100BC0009619981718F49D919193F9CF10927C0182
:100BD00080937B018EE892E00E943202182F8EE80B
:100BE00092E00E943202912E812CF401E82BCF0179
:100BF0004AE0B50124E0969587952A95E1F70E9491
:100C00003706F50101900020E9F731978F010A19A5
:100C10001B09B8016F5F7F4F80E090E00E94CB0717
:100C20006C01009731F0FC011082B5010E94A3080D
:100C300002C000E010E0A801B60181EF91E00E943F
:100C4000210142E050E060E371E081EF91E00E9419
:100C50002101C6010E94330742E050E060E371E0E9
:100C600081EF91E00E9421010E940E024ECFBB272E
:100C7000FB015527AA27880F991FAA1FA41710F058
:100C8000A41B83955051B9F7A05DAA3308F0A95D64
:100C9000A193009779F7B111B1931192CB010C9404
:100CA0005106DC01FC01672F71917723E1F7329740
:100CB00004C07C916D9370836291AE17BF07C8F337
:100CC00008952F923F924F925F926F927F928F92F0
:100CD0009F92AF92BF92CF92DF92EF92FF920F93CB
:100CE0001F93CF93DF93CDB7DEB7CA1BDB0B0FB6D5
:100CF000F894DEBF0FBECDBF09942A883988488892
:100D00005F846E847D848C849B84AA84B984C88427
:100D1000DF80EE80FD800C811B81AA81B981CE0F1E
:100D2000D11D0FB6F894DEBF0FBECDBFED01089503
:100D3000EE0FFF1F0590F491E02D0994CF93DF9300
:100D40008230910510F482E090E0E0919C02F091F5
:100D50009D0220E030E0C0E0D0E0309711F140810A
:100D6000518148175907C0F04817590761F482812B
:100D70009381209719F09B838A832BC090939D02C7
:100D800080939C0226C02115310519F042175307A4
:100D900018F49A01BE01DF01EF010280F381E02D1A
:100DA000DCCF2115310509F1281B390B2430310521
:100DB00090F412968D919C9113976115710521F015
:100DC000FB019383828304C090939D0280939C02D5
:100DD000FD01329644C0FD01E20FF31F8193919310
:100DE000225031092D933C933AC020919A023091C0
:100DF0009B02232B41F42091020130910301309397
:100E00009B0220939A02209100013091010121154B
:100E1000310541F42DB73EB74091040150910501D1
:100E2000241B350BE0919A02F0919B02E217F30725
:100E3000A0F42E1B3F0B2817390778F0AC014E5F4A
:100E40005F4F2417350748F04E0F5F1F50939B02EA
:100E500040939A028193919302C0E0E0F0E0CF01C9
:100E6000DF91CF9108950F931F93CF93DF93009756
:100E700009F48CC0FC0132971382128200919C020B
:100E800010919D020115110581F420813181820F9D
:100E9000931F20919A0230919B022817390779F508
:100EA000F0939B02E0939A0271C0D80140E050E0B9
:100EB000AE17BF0750F412962D913C911397AD01D8
:100EC0002115310509F1D901F3CF9D01DA013383F1
:100ED000228360817181860F971F8217930769F4BF
:100EE000EC0128813981260F371F2E5F3F4F318358
:100EF00020838A819B8193838283452B29F4F093FD
:100F00009D02E0939C0242C01396FC93EE931297CD
:100F1000ED01499159919E01240F351FE217F30706
:100F200071F480819181840F951F029611969C9394
:100F30008E938281938113969C938E931297E0E017
:100F4000F0E0D80112968D919C911397009719F0BB
:100F5000F8018C01F6CF8D919C9198012E5F3F4F47
:100F6000820F931F20919A0230919B022817390714
:100F700069F4309729F410929D0210929C0202C0ED
:100F80001382128210939B0200939A02DF91CF91F9
:100F90001F910F910895A0E0B0E0E1EDF7E00C940F
:100FA0006506EC01009721F4CB010E949E06B8C0B3
:100FB000FC01E60FF71F9C0122503109E217F307ED
:100FC00008F4ACC0D9010D911C91119706171707B1
:100FD000B0F00530110508F49FC0C80104978617CA
:100FE000970708F499C002501109061B170B0193CB
:100FF00011936D937C93CF010E9433078DC05B01E9
:10100000A01AB10A4C01800E911EA0919C02B091D1
:101010009D0240E050E0E12CF12C109709F44AC009
:10102000A815B905D1F56D907C901197630182E008
:10103000C80ED11CCA14DB0480F1A3014A195B0954
:101040006A0182E0C80ED11C1296BC9012971396CA
:10105000AC91B5E0CB16D10440F0B282A3835183AA
:101060004083D9016D937C930AC00E5F1F4FC3016B
:10107000800F911FF90191838083EB2DFA2FE114EA
:10108000F10431F0D7011396FC93EE93129744C00C
:10109000F0939D02E0939C023FC08D919C9111972B
:1010A0004817590708F4AC017D0112960D90BC91C8
:1010B000A02DB3CF80919A0290919B02881599053B
:1010C000E1F446175707C8F480910001909101019F
:1010D000009741F48DB79EB74091040150910501EE
:1010E000841B950BE817F907C8F4F0939B02E09373
:1010F0009A02F901718360830FC0CB010E949E06A2
:101100007C01009759F0A801BE010E949A08CE0107
:101110000E943307C70104C0CE0102C080E090E006
:10112000CDB7DEB7EEE00C94810681E090E0F89454
:101130000C94AA08FB01DC0102C001900D92415001
:101140005040D8F70895FB01DC0101900D9200207A
:08115000E1F70895F894FFCFC8
:1011580000009E02800000000000A50121016E0130
:101168004C016001EC01000000008B024E024602B7
:10117800320223022202696E697420646F6E650070
:041188000D0A00004C
:00000001FF
